{
  "contractName": "Payment",
  "abi": [
    {
      "inputs": [
        {
          "internalType": "uint256",
          "name": "",
          "type": "uint256"
        },
        {
          "internalType": "uint256",
          "name": "",
          "type": "uint256"
        }
      ],
      "name": "adj_mat",
      "outputs": [
        {
          "internalType": "uint256",
          "name": "",
          "type": "uint256"
        }
      ],
      "stateMutability": "view",
      "type": "function",
      "constant": true
    },
    {
      "inputs": [
        {
          "internalType": "uint256",
          "name": "",
          "type": "uint256"
        },
        {
          "internalType": "uint256",
          "name": "",
          "type": "uint256"
        }
      ],
      "name": "joint_account",
      "outputs": [
        {
          "internalType": "uint256",
          "name": "",
          "type": "uint256"
        }
      ],
      "stateMutability": "view",
      "type": "function",
      "constant": true
    },
    {
      "inputs": [
        {
          "internalType": "uint256",
          "name": "",
          "type": "uint256"
        }
      ],
      "name": "path",
      "outputs": [
        {
          "internalType": "uint256",
          "name": "",
          "type": "uint256"
        }
      ],
      "stateMutability": "view",
      "type": "function",
      "constant": true
    },
    {
      "inputs": [],
      "name": "total_nodes",
      "outputs": [
        {
          "internalType": "uint256",
          "name": "",
          "type": "uint256"
        }
      ],
      "stateMutability": "view",
      "type": "function",
      "constant": true
    },
    {
      "inputs": [
        {
          "internalType": "uint256",
          "name": "",
          "type": "uint256"
        }
      ],
      "name": "user_nodes",
      "outputs": [
        {
          "internalType": "uint256",
          "name": "parent",
          "type": "uint256"
        },
        {
          "internalType": "bool",
          "name": "visited",
          "type": "bool"
        }
      ],
      "stateMutability": "view",
      "type": "function",
      "constant": true
    },
    {
      "inputs": [
        {
          "internalType": "uint256",
          "name": "",
          "type": "uint256"
        }
      ],
      "name": "users",
      "outputs": [
        {
          "internalType": "string",
          "name": "",
          "type": "string"
        }
      ],
      "stateMutability": "view",
      "type": "function",
      "constant": true
    },
    {
      "inputs": [
        {
          "internalType": "uint256",
          "name": "use_id",
          "type": "uint256"
        },
        {
          "internalType": "string",
          "name": "user_name",
          "type": "string"
        }
      ],
      "name": "registerUser",
      "outputs": [
        {
          "internalType": "uint256",
          "name": "",
          "type": "uint256"
        }
      ],
      "stateMutability": "nonpayable",
      "type": "function"
    },
    {
      "inputs": [
        {
          "internalType": "uint256",
          "name": "user_id_1",
          "type": "uint256"
        },
        {
          "internalType": "uint256",
          "name": "user_id_2",
          "type": "uint256"
        },
        {
          "internalType": "uint256",
          "name": "balance1",
          "type": "uint256"
        },
        {
          "internalType": "uint256",
          "name": "balance2",
          "type": "uint256"
        }
      ],
      "name": "createAcc",
      "outputs": [
        {
          "internalType": "uint256",
          "name": "",
          "type": "uint256"
        }
      ],
      "stateMutability": "nonpayable",
      "type": "function"
    },
    {
      "inputs": [
        {
          "internalType": "uint256",
          "name": "user_id_1",
          "type": "uint256"
        },
        {
          "internalType": "uint256",
          "name": "user_id_2",
          "type": "uint256"
        },
        {
          "internalType": "uint256",
          "name": "amount",
          "type": "uint256"
        }
      ],
      "name": "sendAmount",
      "outputs": [
        {
          "internalType": "bool",
          "name": "",
          "type": "bool"
        },
        {
          "internalType": "uint256",
          "name": "",
          "type": "uint256"
        }
      ],
      "stateMutability": "nonpayable",
      "type": "function"
    },
    {
      "inputs": [
        {
          "internalType": "uint256",
          "name": "start",
          "type": "uint256"
        },
        {
          "internalType": "uint256",
          "name": "end",
          "type": "uint256"
        }
      ],
      "name": "check_path",
      "outputs": [
        {
          "internalType": "bool",
          "name": "",
          "type": "bool"
        }
      ],
      "stateMutability": "nonpayable",
      "type": "function"
    },
    {
      "inputs": [
        {
          "internalType": "uint256",
          "name": "node",
          "type": "uint256"
        }
      ],
      "name": "getParent",
      "outputs": [
        {
          "internalType": "uint256",
          "name": "",
          "type": "uint256"
        }
      ],
      "stateMutability": "view",
      "type": "function",
      "constant": true
    },
    {
      "inputs": [
        {
          "internalType": "uint256",
          "name": "user_id_1",
          "type": "uint256"
        },
        {
          "internalType": "uint256",
          "name": "user_id_2",
          "type": "uint256"
        }
      ],
      "name": "closeAccount",
      "outputs": [],
      "stateMutability": "nonpayable",
      "type": "function"
    }
  ],
  "bytecode": "0x608060405234801561001057600080fd5b50611621806100206000396000f3fe608060405234801561001057600080fd5b50600436106100b45760003560e01c8063438713371161007157806343871337146101c85780635ce54981146101f857806398a14c6014610228578063af6d1fe414610258578063bd45d6eb14610288578063e012033d146102a4576100b4565b8063104046bd146100b95780631c57333e146100d757806323330c3614610107578063365b98b2146101375780633f3078df14610167578063414533de14610198575b600080fd5b6100c16102d5565b6040516100ce9190610d89565b60405180910390f35b6100f160048036038101906100ec9190610f2a565b6102db565b6040516100fe9190610d89565b60405180910390f35b610121600480360381019061011c9190610f86565b610344565b60405161012e9190610d89565b60405180910390f35b610151600480360381019061014c9190610fc6565b610369565b60405161015e9190611072565b60405180910390f35b610181600480360381019061017c9190611094565b610409565b60405161018f929190611102565b60405180910390f35b6101b260048036038101906101ad9190610fc6565b6107af565b6040516101bf9190610d89565b60405180910390f35b6101e260048036038101906101dd9190610f86565b6107cf565b6040516101ef9190610d89565b60405180910390f35b610212600480360381019061020d919061112b565b610800565b60405161021f9190610d89565b60405180910390f35b610242600480360381019061023d9190610f86565b610949565b60405161024f9190611192565b60405180910390f35b610272600480360381019061026d9190610fc6565b610c37565b60405161027f9190610d89565b60405180910390f35b6102a2600480360381019061029d9190610f86565b610c5b565b005b6102be60048036038101906102b99190610fc6565b610caf565b6040516102cc9291906111ad565b60405180910390f35b60055481565b600060016005546102ec9190611205565b6005819055508160008085815260200190815260200160002090816103119190611445565b50600183908060018154018082558091505060019003906000526020600020016000909190919091505582905092915050565b6003602052816000526040600020602052806000526040600020600091509150505481565b6000602052806000526040600020600091509050805461038890611268565b80601f01602080910402602001604051908101604052809291908181526020018280546103b490611268565b80156104015780601f106103d657610100808354040283529160200191610401565b820191906000526020600020905b8154815290600101906020018083116103e457829003601f168201915b505050505081565b60008060006002600061041c9190610ce0565b6104268686610949565b90508061043d576000620f424092509250506107a7565b60008590505b86811461048357600281908060018154018082558091505060019003906000526020600020016000909190919091505561047c816107af565b9050610443565b6002879080600181540180825580915050600190039060005260206000200160009091909190915055600060019050600060016002805490506104c69190611517565b90505b600181106105d7578660036000600284815481106104ea576104e961154b565b5b90600052602060002001548152602001908152602001600020600060026001856105149190611517565b815481106105255761052461154b565b5b906000526020600020015481526020019081526020016000205410156105c457600091508160036000600284815481106105625761056161154b565b5b906000526020600020015481526020019081526020016000206000600260018561058c9190611517565b8154811061059d5761059c61154b565b5b906000526020600020015481526020019081526020016000205495509550505050506107a7565b80806105cf9061157a565b9150506104c9565b50600060016002805490506105ec9190611517565b90505b60018110610710578660036000600284815481106106105761060f61154b565b5b906000526020600020015481526020019081526020016000206000600260018561063a9190611517565b8154811061064b5761064a61154b565b5b9060005260206000200154815260200190815260200160002060008282546106739190611517565b925050819055508660036000600260018561068e9190611517565b8154811061069f5761069e61154b565b5b906000526020600020015481526020019081526020016000206000600284815481106106ce576106cd61154b565b5b9060005260206000200154815260200190815260200160002060008282546106f69190611205565b9250508190555080806107089061157a565b9150506105ef565b50600186600360006002600160028054905061072c9190611517565b8154811061073d5761073c61154b565b5b906000526020600020015481526020019081526020016000206000600280808054905061076a9190611517565b8154811061077b5761077a61154b565b5b906000526020600020015481526020019081526020016000205461079f9190611205565b945094505050505b935093915050565b600060066000838152602001908152602001600020600001549050919050565b600460205281600052604060002081815481106107eb57600080fd5b90600052602060002001600091509150505481565b60008260036000878152602001908152602001600020600086815260200190815260200160002081905550816003600086815260200190815260200160002060008781526020019081526020016000208190555060006004600087815260200190815260200160002090508085908060018154018082558091505060019003906000526020600020016000909190919091505580600460008881526020019081526020016000209080546108b5929190610d01565b506000600460008781526020019081526020016000209050808790806001815401808255809150506001900390600052602060002001600090919091909150558060046000888152602001908152602001600020908054610917929190610d01565b506003600088815260200190815260200160002060008781526020019081526020016000205492505050949350505050565b600080600090505b6005548110156109f557600060066000600184815481106109755761097461154b565b5b9060005260206000200154815260200190815260200160002060000181905550600060066000600184815481106109af576109ae61154b565b5b9060005260206000200154815260200190815260200160002060010160006101000a81548160ff02191690831515021790555080806109ed906115a3565b915050610951565b50600060055467ffffffffffffffff811115610a1457610a13610dff565b5b604051908082528060200260200182016040528015610a425781602001602082028036833780820191505090505b509050600080848603610a5b5760019350505050610c31565b85838280610a68906115a3565b935081518110610a7b57610a7a61154b565b5b6020026020010181815250506000600660008881526020019081526020016000206000018190555060016006600088815260200190815260200160002060010160006101000a81548160ff0219169083151502179055505b80821015610c29576000838380610ae9906115a3565b945081518110610afc57610afb61154b565b5b60200260200101519050858103610b1a576001945050505050610c31565b60005b6004600083815260200190815260200160002080549050811015610c22576000600460008481526020019081526020016000208281548110610b6257610b6161154b565b5b906000526020600020015490506006600082815260200190815260200160002060010160009054906101000a900460ff16610c0e5780868580610ba4906115a3565b965081518110610bb757610bb661154b565b5b60200260200101818152505060016006600083815260200190815260200160002060010160006101000a81548160ff0219169083151502179055508260066000838152602001908152602001600020600001819055505b508080610c1a906115a3565b915050610b1d565b5050610ad3565b600093505050505b92915050565b60028181548110610c4757600080fd5b906000526020600020016000915090505481565b60036000838152602001908152602001600020600082815260200190815260200160002060009055600360008281526020019081526020016000206000838152602001908152602001600020600090555050565b60066020528060005260406000206000915090508060000154908060010160009054906101000a900460ff16905082565b5080546000825590600052602060002090810190610cfe9190610d53565b50565b828054828255906000526020600020908101928215610d425760005260206000209182015b82811115610d41578254825591600101919060010190610d26565b5b509050610d4f9190610d53565b5090565b5b80821115610d6c576000816000905550600101610d54565b5090565b6000819050919050565b610d8381610d70565b82525050565b6000602082019050610d9e6000830184610d7a565b92915050565b6000604051905090565b600080fd5b600080fd5b610dc181610d70565b8114610dcc57600080fd5b50565b600081359050610dde81610db8565b92915050565b600080fd5b600080fd5b6000601f19601f8301169050919050565b7f4e487b7100000000000000000000000000000000000000000000000000000000600052604160045260246000fd5b610e3782610dee565b810181811067ffffffffffffffff82111715610e5657610e55610dff565b5b80604052505050565b6000610e69610da4565b9050610e758282610e2e565b919050565b600067ffffffffffffffff821115610e9557610e94610dff565b5b610e9e82610dee565b9050602081019050919050565b82818337600083830152505050565b6000610ecd610ec884610e7a565b610e5f565b905082815260208101848484011115610ee957610ee8610de9565b5b610ef4848285610eab565b509392505050565b600082601f830112610f1157610f10610de4565b5b8135610f21848260208601610eba565b91505092915050565b60008060408385031215610f4157610f40610dae565b5b6000610f4f85828601610dcf565b925050602083013567ffffffffffffffff811115610f7057610f6f610db3565b5b610f7c85828601610efc565b9150509250929050565b60008060408385031215610f9d57610f9c610dae565b5b6000610fab85828601610dcf565b9250506020610fbc85828601610dcf565b9150509250929050565b600060208284031215610fdc57610fdb610dae565b5b6000610fea84828501610dcf565b91505092915050565b600081519050919050565b600082825260208201905092915050565b60005b8381101561102d578082015181840152602081019050611012565b60008484015250505050565b600061104482610ff3565b61104e8185610ffe565b935061105e81856020860161100f565b61106781610dee565b840191505092915050565b6000602082019050818103600083015261108c8184611039565b905092915050565b6000806000606084860312156110ad576110ac610dae565b5b60006110bb86828701610dcf565b93505060206110cc86828701610dcf565b92505060406110dd86828701610dcf565b9150509250925092565b60008115159050919050565b6110fc816110e7565b82525050565b600060408201905061111760008301856110f3565b6111246020830184610d7a565b9392505050565b6000806000806080858703121561114557611144610dae565b5b600061115387828801610dcf565b945050602061116487828801610dcf565b935050604061117587828801610dcf565b925050606061118687828801610dcf565b91505092959194509250565b60006020820190506111a760008301846110f3565b92915050565b60006040820190506111c26000830185610d7a565b6111cf60208301846110f3565b9392505050565b7f4e487b7100000000000000000000000000000000000000000000000000000000600052601160045260246000fd5b600061121082610d70565b915061121b83610d70565b9250828201905080821115611233576112326111d6565b5b92915050565b7f4e487b7100000000000000000000000000000000000000000000000000000000600052602260045260246000fd5b6000600282049050600182168061128057607f821691505b60208210810361129357611292611239565b5b50919050565b60008190508160005260206000209050919050565b60006020601f8301049050919050565b600082821b905092915050565b6000600883026112fb7fffffffffffffffffffffffffffffffffffffffffffffffffffffffffffffffff826112be565b61130586836112be565b95508019841693508086168417925050509392505050565b6000819050919050565b600061134261133d61133884610d70565b61131d565b610d70565b9050919050565b6000819050919050565b61135c83611327565b61137061136882611349565b8484546112cb565b825550505050565b600090565b611385611378565b611390818484611353565b505050565b5b818110156113b4576113a960008261137d565b600181019050611396565b5050565b601f8211156113f9576113ca81611299565b6113d3846112ae565b810160208510156113e2578190505b6113f66113ee856112ae565b830182611395565b50505b505050565b600082821c905092915050565b600061141c600019846008026113fe565b1980831691505092915050565b6000611435838361140b565b9150826002028217905092915050565b61144e82610ff3565b67ffffffffffffffff81111561146757611466610dff565b5b6114718254611268565b61147c8282856113b8565b600060209050601f8311600181146114af576000841561149d578287015190505b6114a78582611429565b86555061150f565b601f1984166114bd86611299565b60005b828110156114e5578489015182556001820191506020850194506020810190506114c0565b8683101561150257848901516114fe601f89168261140b565b8355505b6001600288020188555050505b505050505050565b600061152282610d70565b915061152d83610d70565b9250828203905081811115611545576115446111d6565b5b92915050565b7f4e487b7100000000000000000000000000000000000000000000000000000000600052603260045260246000fd5b600061158582610d70565b915060008203611598576115976111d6565b5b600182039050919050565b60006115ae82610d70565b91507fffffffffffffffffffffffffffffffffffffffffffffffffffffffffffffffff82036115e0576115df6111d6565b5b60018201905091905056fea2646970667358221220cecbffad8e946ab53f7c3bbf6f913f408233f60f2fc59ee82c4a271a1666a00164736f6c63430008130033",
  "immutableReferences": {},
  "source": "// SPDX-License-Identifier: MIT\npragma solidity >=0.8.2 <0.9.0;\n//pragma solidity ^0.8.0;\n\n/*@custom:dev-run-script NatSpec\n*/\ncontract Payment {\n\n   mapping(uint => string) public users;\nuint[] ids;\nuint[] public path;\n   mapping (uint => mapping (uint=>uint)) public joint_account;\n    mapping(uint => uint[]) public adj_mat; \n    uint public total_nodes;\n    struct Node {\n        uint parent; // Parent node\n        bool visited; // Flag to track visited user_nodes\n    }\n    mapping(uint => Node) public user_nodes;\n\n\n\n\n   function registerUser(uint use_id, string memory user_name) public returns (uint)\n   {\n       total_nodes=total_nodes+1;\n       users[use_id]=user_name;\n       ids.push(use_id);\n       return use_id;\n   }\n\n   function createAcc(uint user_id_1,uint user_id_2,uint balance1,uint balance2) public returns(uint)\n   {\n       joint_account[user_id_1][user_id_2]=balance1;\n       joint_account[user_id_2][user_id_1]=balance2;\n       uint[] storage existingValues1 = adj_mat[user_id_1];\n       existingValues1.push(user_id_2);\n       adj_mat[user_id_1]=existingValues1;\n       uint[] storage existingValues2 = adj_mat[user_id_2];\n       existingValues2.push(user_id_1);\n       adj_mat[user_id_2]=existingValues2;\n       return joint_account[user_id_1][user_id_2];\n   }\n\n\n    function sendAmount(uint user_id_1,uint user_id_2, uint amount) public returns(bool, uint)\n    {\n       bool ispath;\n        delete path;\n        ispath=check_path(user_id_1,user_id_2);\n        if(!ispath) return (false,1000000);\n\n        // uint[] memory path = new uint[](size);\n\n        uint curr=user_id_2;\n        while(curr!=user_id_1)\n        {\n            path.push(curr);\n            curr=getParent(curr);\n        }\n        path.push(user_id_1);\n\n        bool decision = true;\n        for(uint j=path.length - 1; j>=1; j--){\n            if(joint_account[path[j]][path[j-1]] < amount){\n                decision = false;\n                return (decision,joint_account[path[j]][path[j-1]]);\n            }\n        }\n        for(uint j=path.length - 1; j>=1; j--){\n            joint_account[path[j]][path[j-1]] -= amount;\n            joint_account[path[j-1]][path[j]] += amount;\n        }\n        return (true, joint_account[path[path.length-1]][path[path.length-2]] + amount);\n        // return path;\n        \n    }\n\n    function check_path(uint start,uint end) public returns (bool)\n    {\n\n\n        for(uint i=0;i<total_nodes;i++)\n        {\n            user_nodes[ids[i]].parent=0;\n            user_nodes[ids[i]].visited=false;\n\n        }\n\n        uint[] memory queue = new uint[](total_nodes);\n        uint f = 0;\n        uint r = 0;\n\n        if(start==end)\n        {\n            return true;\n        }\n\n        queue[r++] = start;\n        user_nodes[start].parent = 0;\n        user_nodes[start].visited = true; \n\n        while (f < r) {\n            uint current = queue[f++];\n\n             if (current == end) {\n                return true;\n            }\n\n             for (uint i = 0; i < adj_mat[current].length; i++) {\n                 uint neighbor = adj_mat[current][i];\n\n                if (! user_nodes[neighbor].visited) {\n                    queue[r++] = neighbor;\n                    user_nodes[neighbor].visited = true;\n                    user_nodes[neighbor].parent = current; \n\n                }\n            }\n\n        }\n        return false;\n\n    }\n\n    function getParent(uint node) public view returns (uint) {\n        return user_nodes[node].parent;\n    }\n\n\n    function closeAccount(uint user_id_1, uint user_id_2) public\n    {\n        delete joint_account[user_id_1][user_id_2];\n        delete joint_account[user_id_2][user_id_1];\n        // bool and = true;\n\n    }\n\n    // uint a = registerUser(1, \"user_1user_name\");\n}",
  "sourcePath": "/home/virusundetected/Documents/IITB/Sem2/CS 765/Assignments/Dapp/Layer-2-DAPP-on-top-of-Blockchain/contracts/Payment.sol",
  "compiler": {
    "name": "solc",
    "version": "0.8.19+commit.7dd6d404.Emscripten.clang"
  },
  "schemaVersion": "3.4.13",
  "updatedAt": "2023-04-12T09:31:54.493Z",
  "networkType": "ethereum",
  "devdoc": {
    "kind": "dev",
    "methods": {},
    "version": 1
  },
  "userdoc": {
    "kind": "user",
    "methods": {},
    "version": 1
  }
}