{
  "contractName": "payment",
  "abi": [
    {
      "inputs": [
        {
          "internalType": "uint256",
          "name": "",
          "type": "uint256"
        },
        {
          "internalType": "uint256",
          "name": "",
          "type": "uint256"
        }
      ],
      "name": "adj_mat",
      "outputs": [
        {
          "internalType": "uint256",
          "name": "",
          "type": "uint256"
        }
      ],
      "stateMutability": "view",
      "type": "function"
    },
    {
      "inputs": [
        {
          "internalType": "uint256",
          "name": "",
          "type": "uint256"
        },
        {
          "internalType": "uint256",
          "name": "",
          "type": "uint256"
        }
      ],
      "name": "joint_account",
      "outputs": [
        {
          "internalType": "uint256",
          "name": "",
          "type": "uint256"
        }
      ],
      "stateMutability": "view",
      "type": "function"
    },
    {
      "inputs": [
        {
          "internalType": "uint256",
          "name": "",
          "type": "uint256"
        }
      ],
      "name": "path",
      "outputs": [
        {
          "internalType": "uint256",
          "name": "",
          "type": "uint256"
        }
      ],
      "stateMutability": "view",
      "type": "function"
    },
    {
      "inputs": [],
      "name": "total_nodes",
      "outputs": [
        {
          "internalType": "uint256",
          "name": "",
          "type": "uint256"
        }
      ],
      "stateMutability": "view",
      "type": "function"
    },
    {
      "inputs": [
        {
          "internalType": "uint256",
          "name": "",
          "type": "uint256"
        }
      ],
      "name": "user_nodes",
      "outputs": [
        {
          "internalType": "uint256",
          "name": "parent",
          "type": "uint256"
        },
        {
          "internalType": "bool",
          "name": "visited",
          "type": "bool"
        }
      ],
      "stateMutability": "view",
      "type": "function"
    },
    {
      "inputs": [
        {
          "internalType": "uint256",
          "name": "",
          "type": "uint256"
        }
      ],
      "name": "users",
      "outputs": [
        {
          "internalType": "string",
          "name": "",
          "type": "string"
        }
      ],
      "stateMutability": "view",
      "type": "function"
    },
    {
      "inputs": [
        {
          "internalType": "uint256",
          "name": "use_id",
          "type": "uint256"
        },
        {
          "internalType": "string",
          "name": "user_name",
          "type": "string"
        }
      ],
      "name": "registerUser",
      "outputs": [
        {
          "internalType": "uint256",
          "name": "",
          "type": "uint256"
        }
      ],
      "stateMutability": "nonpayable",
      "type": "function"
    },
    {
      "inputs": [
        {
          "internalType": "uint32",
          "name": "user_id",
          "type": "uint32"
        }
      ],
      "name": "getUserId",
      "outputs": [
        {
          "internalType": "uint32",
          "name": "",
          "type": "uint32"
        }
      ],
      "stateMutability": "nonpayable",
      "type": "function"
    },
    {
      "inputs": [
        {
          "internalType": "uint256",
          "name": "user_id_1",
          "type": "uint256"
        },
        {
          "internalType": "uint256",
          "name": "user_id_2",
          "type": "uint256"
        },
        {
          "internalType": "uint256",
          "name": "balance1",
          "type": "uint256"
        },
        {
          "internalType": "uint256",
          "name": "balance2",
          "type": "uint256"
        }
      ],
      "name": "createAcc",
      "outputs": [
        {
          "internalType": "uint256",
          "name": "",
          "type": "uint256"
        }
      ],
      "stateMutability": "nonpayable",
      "type": "function"
    },
    {
      "inputs": [
        {
          "internalType": "uint256",
          "name": "user_id_1",
          "type": "uint256"
        },
        {
          "internalType": "uint8",
          "name": "user_id_2",
          "type": "uint8"
        },
        {
          "internalType": "uint8",
          "name": "amount",
          "type": "uint8"
        }
      ],
      "name": "sendAmount",
      "outputs": [
        {
          "internalType": "bool",
          "name": "",
          "type": "bool"
        }
      ],
      "stateMutability": "nonpayable",
      "type": "function"
    },
    {
      "inputs": [
        {
          "internalType": "uint256",
          "name": "start",
          "type": "uint256"
        },
        {
          "internalType": "uint256",
          "name": "end",
          "type": "uint256"
        }
      ],
      "name": "check_path",
      "outputs": [
        {
          "internalType": "bool",
          "name": "",
          "type": "bool"
        }
      ],
      "stateMutability": "nonpayable",
      "type": "function"
    },
    {
      "inputs": [
        {
          "internalType": "uint256",
          "name": "node",
          "type": "uint256"
        }
      ],
      "name": "getParent",
      "outputs": [
        {
          "internalType": "uint256",
          "name": "",
          "type": "uint256"
        }
      ],
      "stateMutability": "view",
      "type": "function"
    },
    {
      "inputs": [
        {
          "internalType": "uint8",
          "name": "user_id_1",
          "type": "uint8"
        },
        {
          "internalType": "uint8",
          "name": "user_id_2",
          "type": "uint8"
        }
      ],
      "name": "closeAccount",
      "outputs": [],
      "stateMutability": "nonpayable",
      "type": "function"
    }
  ],
  "bytecode": "0x608060405234801561001057600080fd5b5061166d806100206000396000f3fe608060405234801561001057600080fd5b50600436106100cf5760003560e01c80635ce549811161008c578063af6d1fe411610066578063af6d1fe414610272578063d50a0015146102a2578063d8e78177146102d2578063e012033d146102ee576100cf565b80635ce54981146101e2578063866f154f1461021257806398a14c6014610242576100cf565b8063104046bd146100d45780631c57333e146100f257806323330c3614610122578063365b98b214610152578063414533de1461018257806343871337146101b2575b600080fd5b6100dc61031f565b6040516100e99190610cf2565b60405180910390f35b61010c60048036038101906101079190610e93565b610325565b6040516101199190610cf2565b60405180910390f35b61013c60048036038101906101379190610eef565b61038e565b6040516101499190610cf2565b60405180910390f35b61016c60048036038101906101679190610f2f565b6103b3565b6040516101799190610fdb565b60405180910390f35b61019c60048036038101906101979190610f2f565b610453565b6040516101a99190610cf2565b60405180910390f35b6101cc60048036038101906101c79190610eef565b610473565b6040516101d99190610cf2565b60405180910390f35b6101fc60048036038101906101f79190610ffd565b6104a4565b6040516102099190610cf2565b60405180910390f35b61022c6004803603810190610227919061109d565b6105ed565b604051610239919061110b565b60405180910390f35b61025c60048036038101906102579190610eef565b61089c565b604051610269919061110b565b60405180910390f35b61028c60048036038101906102879190610f2f565b610b8a565b6040516102999190610cf2565b60405180910390f35b6102bc60048036038101906102b79190611162565b610bae565b6040516102c9919061119e565b60405180910390f35b6102ec60048036038101906102e791906111b9565b610bb8565b005b61030860048036038101906103039190610f2f565b610c18565b6040516103169291906111f9565b60405180910390f35b60075481565b600060016007546103369190611251565b60078190555081600080858152602001908152602001600020908161035b9190611491565b50600183908060018154018082558091505060019003906000526020600020016000909190919091505582905092915050565b6003602052816000526040600020602052806000526040600020600091509150505481565b600060205280600052604060002060009150905080546103d2906112b4565b80601f01602080910402602001604051908101604052809291908181526020018280546103fe906112b4565b801561044b5780601f106104205761010080835404028352916020019161044b565b820191906000526020600020905b81548152906001019060200180831161042e57829003601f168201915b505050505081565b600060086000838152602001908152602001600020600001549050919050565b6006602052816000526040600020818154811061048f57600080fd5b90600052602060002001600091509150505481565b6000826003600087815260200190815260200160002060008681526020019081526020016000208190555081600360008681526020019081526020016000206000878152602001908152602001600020819055506000600660008781526020019081526020016000209050808590806001815401808255809150506001900390600052602060002001600090919091909150558060066000888152602001908152602001600020908054610559929190610c49565b5060006006600087815260200190815260200160002090508087908060018154018082558091505060019003906000526020600020016000909190919091505580600660008881526020019081526020016000209080546105bb929190610c49565b506003600088815260200190815260200160002060008781526020019081526020016000205492505050949350505050565b600080600260006105fe9190610c9b565b61060b858560ff1661089c565b90508061061c576000915050610895565b60008460ff1690505b85811461066557600281908060018154018082558091505060019003906000526020600020016000909190919091505561065e81610453565b9050610625565b6002869080600181540180825580915050600190039060005260206000200160009091909190915055600060019050600060016002805490506106a89190611563565b90505b6001811061074d578560ff1660036000600284815481106106cf576106ce611597565b5b90600052602060002001548152602001908152602001600020600060026001856106f99190611563565b8154811061070a57610709611597565b5b9060005260206000200154815260200190815260200160002054101561073a576000915081945050505050610895565b8080610745906115c6565b9150506106ab565b50600060016002805490506107629190611563565b90505b6001811061088c578560ff16600360006002848154811061078957610788611597565b5b90600052602060002001548152602001908152602001600020600060026001856107b39190611563565b815481106107c4576107c3611597565b5b9060005260206000200154815260200190815260200160002060008282546107ec9190611563565b925050819055508560ff1660036000600260018561080a9190611563565b8154811061081b5761081a611597565b5b9060005260206000200154815260200190815260200160002060006002848154811061084a57610849611597565b5b9060005260206000200154815260200190815260200160002060008282546108729190611251565b925050819055508080610884906115c6565b915050610765565b50600193505050505b9392505050565b600080600090505b60075481101561094857600060086000600184815481106108c8576108c7611597565b5b90600052602060002001548152602001908152602001600020600001819055506000600860006001848154811061090257610901611597565b5b9060005260206000200154815260200190815260200160002060010160006101000a81548160ff0219169083151502179055508080610940906115ef565b9150506108a4565b50600060075467ffffffffffffffff81111561096757610966610d68565b5b6040519080825280602002602001820160405280156109955781602001602082028036833780820191505090505b5090506000808486036109ae5760019350505050610b84565b858382806109bb906115ef565b9350815181106109ce576109cd611597565b5b6020026020010181815250506000600860008881526020019081526020016000206000018190555060016008600088815260200190815260200160002060010160006101000a81548160ff0219169083151502179055505b80821015610b7c576000838380610a3c906115ef565b945081518110610a4f57610a4e611597565b5b60200260200101519050858103610a6d576001945050505050610b84565b60005b6006600083815260200190815260200160002080549050811015610b75576000600660008481526020019081526020016000208281548110610ab557610ab4611597565b5b906000526020600020015490506008600082815260200190815260200160002060010160009054906101000a900460ff16610b615780868580610af7906115ef565b965081518110610b0a57610b09611597565b5b60200260200101818152505060016008600083815260200190815260200160002060010160006101000a81548160ff0219169083151502179055508260086000838152602001908152602001600020600001819055505b508080610b6d906115ef565b915050610a70565b5050610a26565b600093505050505b92915050565b60028181548110610b9a57600080fd5b906000526020600020016000915090505481565b6000819050919050565b600360008360ff16815260200190815260200160002060008260ff16815260200190815260200160002060009055600360008260ff16815260200190815260200160002060008360ff168152602001908152602001600020600090555050565b60086020528060005260406000206000915090508060000154908060010160009054906101000a900460ff16905082565b828054828255906000526020600020908101928215610c8a5760005260206000209182015b82811115610c89578254825591600101919060010190610c6e565b5b509050610c979190610cbc565b5090565b5080546000825590600052602060002090810190610cb99190610cbc565b50565b5b80821115610cd5576000816000905550600101610cbd565b5090565b6000819050919050565b610cec81610cd9565b82525050565b6000602082019050610d076000830184610ce3565b92915050565b6000604051905090565b600080fd5b600080fd5b610d2a81610cd9565b8114610d3557600080fd5b50565b600081359050610d4781610d21565b92915050565b600080fd5b600080fd5b6000601f19601f8301169050919050565b7f4e487b7100000000000000000000000000000000000000000000000000000000600052604160045260246000fd5b610da082610d57565b810181811067ffffffffffffffff82111715610dbf57610dbe610d68565b5b80604052505050565b6000610dd2610d0d565b9050610dde8282610d97565b919050565b600067ffffffffffffffff821115610dfe57610dfd610d68565b5b610e0782610d57565b9050602081019050919050565b82818337600083830152505050565b6000610e36610e3184610de3565b610dc8565b905082815260208101848484011115610e5257610e51610d52565b5b610e5d848285610e14565b509392505050565b600082601f830112610e7a57610e79610d4d565b5b8135610e8a848260208601610e23565b91505092915050565b60008060408385031215610eaa57610ea9610d17565b5b6000610eb885828601610d38565b925050602083013567ffffffffffffffff811115610ed957610ed8610d1c565b5b610ee585828601610e65565b9150509250929050565b60008060408385031215610f0657610f05610d17565b5b6000610f1485828601610d38565b9250506020610f2585828601610d38565b9150509250929050565b600060208284031215610f4557610f44610d17565b5b6000610f5384828501610d38565b91505092915050565b600081519050919050565b600082825260208201905092915050565b60005b83811015610f96578082015181840152602081019050610f7b565b60008484015250505050565b6000610fad82610f5c565b610fb78185610f67565b9350610fc7818560208601610f78565b610fd081610d57565b840191505092915050565b60006020820190508181036000830152610ff58184610fa2565b905092915050565b6000806000806080858703121561101757611016610d17565b5b600061102587828801610d38565b945050602061103687828801610d38565b935050604061104787828801610d38565b925050606061105887828801610d38565b91505092959194509250565b600060ff82169050919050565b61107a81611064565b811461108557600080fd5b50565b60008135905061109781611071565b92915050565b6000806000606084860312156110b6576110b5610d17565b5b60006110c486828701610d38565b93505060206110d586828701611088565b92505060406110e686828701611088565b9150509250925092565b60008115159050919050565b611105816110f0565b82525050565b600060208201905061112060008301846110fc565b92915050565b600063ffffffff82169050919050565b61113f81611126565b811461114a57600080fd5b50565b60008135905061115c81611136565b92915050565b60006020828403121561117857611177610d17565b5b60006111868482850161114d565b91505092915050565b61119881611126565b82525050565b60006020820190506111b3600083018461118f565b92915050565b600080604083850312156111d0576111cf610d17565b5b60006111de85828601611088565b92505060206111ef85828601611088565b9150509250929050565b600060408201905061120e6000830185610ce3565b61121b60208301846110fc565b9392505050565b7f4e487b7100000000000000000000000000000000000000000000000000000000600052601160045260246000fd5b600061125c82610cd9565b915061126783610cd9565b925082820190508082111561127f5761127e611222565b5b92915050565b7f4e487b7100000000000000000000000000000000000000000000000000000000600052602260045260246000fd5b600060028204905060018216806112cc57607f821691505b6020821081036112df576112de611285565b5b50919050565b60008190508160005260206000209050919050565b60006020601f8301049050919050565b600082821b905092915050565b6000600883026113477fffffffffffffffffffffffffffffffffffffffffffffffffffffffffffffffff8261130a565b611351868361130a565b95508019841693508086168417925050509392505050565b6000819050919050565b600061138e61138961138484610cd9565b611369565b610cd9565b9050919050565b6000819050919050565b6113a883611373565b6113bc6113b482611395565b848454611317565b825550505050565b600090565b6113d16113c4565b6113dc81848461139f565b505050565b5b81811015611400576113f56000826113c9565b6001810190506113e2565b5050565b601f82111561144557611416816112e5565b61141f846112fa565b8101602085101561142e578190505b61144261143a856112fa565b8301826113e1565b50505b505050565b600082821c905092915050565b60006114686000198460080261144a565b1980831691505092915050565b60006114818383611457565b9150826002028217905092915050565b61149a82610f5c565b67ffffffffffffffff8111156114b3576114b2610d68565b5b6114bd82546112b4565b6114c8828285611404565b600060209050601f8311600181146114fb57600084156114e9578287015190505b6114f38582611475565b86555061155b565b601f198416611509866112e5565b60005b828110156115315784890151825560018201915060208501945060208101905061150c565b8683101561154e578489015161154a601f891682611457565b8355505b6001600288020188555050505b505050505050565b600061156e82610cd9565b915061157983610cd9565b925082820390508181111561159157611590611222565b5b92915050565b7f4e487b7100000000000000000000000000000000000000000000000000000000600052603260045260246000fd5b60006115d182610cd9565b9150600082036115e4576115e3611222565b5b600182039050919050565b60006115fa82610cd9565b91507fffffffffffffffffffffffffffffffffffffffffffffffffffffffffffffffff820361162c5761162b611222565b5b60018201905091905056fea2646970667358221220d5fd1d75fafe166d07b5403fcdffe0d72a97ab931daa045def0b4fbfcfb219c064736f6c63430008130033",
  "immutableReferences": {},
  "source": "// SPDX-License-Identifier: MIT\npragma solidity >=0.8.2 <0.9.0;\n//pragma solidity ^0.8.0;\n\n/*@custom:dev-run-script NatSpec\n*/\ncontract payment {\n\n   mapping(uint => string) public users;\nuint[] ids;\nuint[] public path;\n   mapping (uint => mapping (uint=>uint)) public joint_account;\n   mapping(uint => bool) visited;\n  mapping(uint => bool) processed;\n    mapping(uint => uint[]) public adj_mat; \n    uint public total_nodes;\n    struct Node {\n        uint parent; // Parent node\n        bool visited; // Flag to track visited user_nodes\n    }\n    mapping(uint => Node) public user_nodes;\n\n\n\n\n   function registerUser(uint use_id, string memory user_name) public returns (uint)\n   {\n       total_nodes=total_nodes+1;\n       users[use_id]=user_name;\n       ids.push(use_id);\n       return use_id;\n   }\n\n   function getUserId(uint32 user_id) public returns(uint32)\n   {\n        // return users[user_id];\n        return user_id;\n   }\n\n   function createAcc(uint user_id_1,uint user_id_2,uint balance1,uint balance2) public returns(uint)\n   {\n       joint_account[user_id_1][user_id_2]=balance1;\n       joint_account[user_id_2][user_id_1]=balance2;\n       uint[] storage existingValues1 = adj_mat[user_id_1];\n       existingValues1.push(user_id_2);\n       adj_mat[user_id_1]=existingValues1;\n       uint[] storage existingValues2 = adj_mat[user_id_2];\n       existingValues2.push(user_id_1);\n       adj_mat[user_id_2]=existingValues2;\n       return joint_account[user_id_1][user_id_2];\n   }\n\n\n    function sendAmount(uint user_id_1,uint8 user_id_2, uint8 amount) public returns(bool)\n    {\n       bool ispath;\n        delete path;\n        ispath=check_path(user_id_1,user_id_2);\n        if(!ispath) return false;\n\n        // uint[] memory path = new uint[](size);\n\n        uint curr=user_id_2;\n        while(curr!=user_id_1)\n        {\n            path.push(curr);\n            curr=getParent(curr);\n        }\n        path.push(user_id_1);\n\n        bool decision = true;\n        for(uint j=path.length - 1; j>=1; j--){\n            if(joint_account[path[j]][path[j-1]] < amount){\n                decision = false;\n                return decision;\n            }\n        }\n        for(uint j=path.length - 1; j>=1; j--){\n            joint_account[path[j]][path[j-1]] -= amount;\n            joint_account[path[j-1]][path[j]] += amount;\n        }\n        return true;\n        // return path;\n        \n    }\n\n    function check_path(uint start,uint end) public returns (bool)\n    {\n\n\n        for(uint i=0;i<total_nodes;i++)\n        {\n            user_nodes[ids[i]].parent=0;\n            user_nodes[ids[i]].visited=false;\n\n        }\n\n        uint[] memory queue = new uint[](total_nodes);\n        uint f = 0;\n        uint r = 0;\n\n        if(start==end)\n        {\n            return true;\n        }\n\n        queue[r++] = start;\n        user_nodes[start].parent = 0;\n        user_nodes[start].visited = true; \n\n        while (f < r) {\n            uint current = queue[f++];\n\n             if (current == end) {\n                return true;\n            }\n\n             for (uint i = 0; i < adj_mat[current].length; i++) {\n                 uint neighbor = adj_mat[current][i];\n\n                if (! user_nodes[neighbor].visited) {\n                    queue[r++] = neighbor;\n                    user_nodes[neighbor].visited = true;\n                    user_nodes[neighbor].parent = current; \n\n                }\n            }\n\n        }\n        return false;\n\n    }\n\n    function getParent(uint node) public view returns (uint) {\n        return user_nodes[node].parent;\n    }\n\n\n    function closeAccount(uint8 user_id_1, uint8 user_id_2) public\n    {\n        delete joint_account[user_id_1][user_id_2];\n        delete joint_account[user_id_2][user_id_1];\n        // bool and = true;\n\n    }\n\n    // uint a = registerUser(1, \"user_1user_name\");\n}",
  "sourcePath": "/home/virusundetected/Documents/IITB/Sem2/CS 765/Assignments/Dapp/Layer-2-DAPP-on-top-of-Blockchain/contracts/Payment.sol",
  "compiler": {
    "name": "solc",
    "version": "0.8.19+commit.7dd6d404.Emscripten.clang"
  },
  "schemaVersion": "3.4.13",
  "updatedAt": "2023-04-11T14:20:31.055Z",
  "devdoc": {
    "kind": "dev",
    "methods": {},
    "version": 1
  },
  "userdoc": {
    "kind": "user",
    "methods": {},
    "version": 1
  }
}