{
  "contractName": "Payment",
  "abi": [
    {
      "inputs": [],
      "stateMutability": "nonpayable",
      "type": "constructor"
    },
    {
      "inputs": [
        {
          "internalType": "uint256",
          "name": "user_id",
          "type": "uint256"
        },
        {
          "internalType": "string",
          "name": "user_name",
          "type": "string"
        }
      ],
      "name": "registerUser",
      "outputs": [],
      "stateMutability": "nonpayable",
      "type": "function"
    },
    {
      "inputs": [
        {
          "internalType": "uint256",
          "name": "user_id_1",
          "type": "uint256"
        },
        {
          "internalType": "uint256",
          "name": "user_id_2",
          "type": "uint256"
        },
        {
          "internalType": "uint256",
          "name": "balance",
          "type": "uint256"
        }
      ],
      "name": "createAcc",
      "outputs": [],
      "stateMutability": "nonpayable",
      "type": "function"
    },
    {
      "inputs": [
        {
          "internalType": "uint256",
          "name": "user_id_1",
          "type": "uint256"
        },
        {
          "internalType": "uint256",
          "name": "user_id_2",
          "type": "uint256"
        }
      ],
      "name": "sendAmount",
      "outputs": [],
      "stateMutability": "payable",
      "type": "function",
      "payable": true
    },
    {
      "inputs": [
        {
          "internalType": "uint256",
          "name": "user_id_1",
          "type": "uint256"
        },
        {
          "internalType": "uint256",
          "name": "user_id_2",
          "type": "uint256"
        }
      ],
      "name": "closeAccount",
      "outputs": [],
      "stateMutability": "payable",
      "type": "function",
      "payable": true
    }
  ],
  "bytecode": "0x608060405234801561001057600080fd5b506106f3806100206000396000f3fe60806040526004361061003f5760003560e01c80631c57333e146100445780635db9506e1461006d578063b548348114610089578063bd45d6eb146100b2575b600080fd5b34801561005057600080fd5b5061006b600480360381019061006691906102e5565b6100ce565b005b61008760048036038101906100829190610341565b610148565b005b34801561009557600080fd5b506100b060048036038101906100ab9190610381565b61014c565b005b6100cc60048036038101906100c79190610341565b610151565b005b6040518060400160405280838152602001828152506000803373ffffffffffffffffffffffffffffffffffffffff1673ffffffffffffffffffffffffffffffffffffffff16815260200190815260200160002060008201518160000155602082015181600101908161014091906105eb565b509050505050565b5050565b505050565b5050565b6000604051905090565b600080fd5b600080fd5b6000819050919050565b61017c81610169565b811461018757600080fd5b50565b60008135905061019981610173565b92915050565b600080fd5b600080fd5b6000601f19601f8301169050919050565b7f4e487b7100000000000000000000000000000000000000000000000000000000600052604160045260246000fd5b6101f2826101a9565b810181811067ffffffffffffffff82111715610211576102106101ba565b5b80604052505050565b6000610224610155565b905061023082826101e9565b919050565b600067ffffffffffffffff8211156102505761024f6101ba565b5b610259826101a9565b9050602081019050919050565b82818337600083830152505050565b600061028861028384610235565b61021a565b9050828152602081018484840111156102a4576102a36101a4565b5b6102af848285610266565b509392505050565b600082601f8301126102cc576102cb61019f565b5b81356102dc848260208601610275565b91505092915050565b600080604083850312156102fc576102fb61015f565b5b600061030a8582860161018a565b925050602083013567ffffffffffffffff81111561032b5761032a610164565b5b610337858286016102b7565b9150509250929050565b600080604083850312156103585761035761015f565b5b60006103668582860161018a565b92505060206103778582860161018a565b9150509250929050565b60008060006060848603121561039a5761039961015f565b5b60006103a88682870161018a565b93505060206103b98682870161018a565b92505060406103ca8682870161018a565b9150509250925092565b600081519050919050565b7f4e487b7100000000000000000000000000000000000000000000000000000000600052602260045260246000fd5b6000600282049050600182168061042657607f821691505b602082108103610439576104386103df565b5b50919050565b60008190508160005260206000209050919050565b60006020601f8301049050919050565b600082821b905092915050565b6000600883026104a17fffffffffffffffffffffffffffffffffffffffffffffffffffffffffffffffff82610464565b6104ab8683610464565b95508019841693508086168417925050509392505050565b6000819050919050565b60006104e86104e36104de84610169565b6104c3565b610169565b9050919050565b6000819050919050565b610502836104cd565b61051661050e826104ef565b848454610471565b825550505050565b600090565b61052b61051e565b6105368184846104f9565b505050565b5b8181101561055a5761054f600082610523565b60018101905061053c565b5050565b601f82111561059f576105708161043f565b61057984610454565b81016020851015610588578190505b61059c61059485610454565b83018261053b565b50505b505050565b600082821c905092915050565b60006105c2600019846008026105a4565b1980831691505092915050565b60006105db83836105b1565b9150826002028217905092915050565b6105f4826103d4565b67ffffffffffffffff81111561060d5761060c6101ba565b5b610617825461040e565b61062282828561055e565b600060209050601f8311600181146106555760008415610643578287015190505b61064d85826105cf565b8655506106b5565b601f1984166106638661043f565b60005b8281101561068b57848901518255600182019150602085019450602081019050610666565b868310156106a857848901516106a4601f8916826105b1565b8355505b6001600288020188555050505b50505050505056fea26469706673582212203aed113151ab1dab603d89dd2b9bf0bd47a5748c225e4cf388c566e948a800bf64736f6c63430008130033",
  "immutableReferences": {},
  "source": "// SPDX-License-Identifier: MIT\npragma solidity >=0.4.22 <0.9.0;\n\ncontract Payment {\n  constructor() public {\n  }\n\n  struct User {\n      uint userId;\n      string userName;\n  }\n\n  mapping(address => User) users;\n\n  function registerUser(uint user_id, string memory user_name) public {\n    users[msg.sender] = User(user_id, user_name);\n  }\n\n  function createAcc(uint user_id_1, uint user_id_2, uint balance) public {\n    \n  }\n\n  function sendAmount(uint user_id_1, uint user_id_2) public payable {\n    \n  }\n\n  function closeAccount(uint user_id_1, uint user_id_2) public payable {\n    \n  }\n}\n",
  "sourcePath": "/Users/manasgabani/Downloads/IITB/CS765/HW3/Layer-2-DAPP-on-top-of-Blockchain/contracts/Payment.sol",
  "compiler": {
    "name": "solc",
    "version": "0.8.19+commit.7dd6d404.Emscripten.clang"
  },
  "schemaVersion": "3.4.13",
  "updatedAt": "2023-04-09T06:39:21.549Z",
  "networkType": "ethereum",
  "devdoc": {
    "kind": "dev",
    "methods": {},
    "version": 1
  },
  "userdoc": {
    "kind": "user",
    "methods": {},
    "version": 1
  }
}