{
  "contractName": "Payment",
  "abi": [
    {
      "inputs": [
        {
          "internalType": "uint256",
          "name": "",
          "type": "uint256"
        },
        {
          "internalType": "uint256",
          "name": "",
          "type": "uint256"
        }
      ],
      "name": "adj_mat",
      "outputs": [
        {
          "internalType": "uint256",
          "name": "",
          "type": "uint256"
        }
      ],
      "stateMutability": "view",
      "type": "function",
      "constant": true
    },
    {
      "inputs": [
        {
          "internalType": "uint256",
          "name": "",
          "type": "uint256"
        },
        {
          "internalType": "uint256",
          "name": "",
          "type": "uint256"
        }
      ],
      "name": "joint_account",
      "outputs": [
        {
          "internalType": "uint256",
          "name": "",
          "type": "uint256"
        }
      ],
      "stateMutability": "view",
      "type": "function",
      "constant": true
    },
    {
      "inputs": [
        {
          "internalType": "uint256",
          "name": "",
          "type": "uint256"
        }
      ],
      "name": "path",
      "outputs": [
        {
          "internalType": "uint256",
          "name": "",
          "type": "uint256"
        }
      ],
      "stateMutability": "view",
      "type": "function",
      "constant": true
    },
    {
      "inputs": [],
      "name": "total_nodes",
      "outputs": [
        {
          "internalType": "uint256",
          "name": "",
          "type": "uint256"
        }
      ],
      "stateMutability": "view",
      "type": "function",
      "constant": true
    },
    {
      "inputs": [
        {
          "internalType": "uint256",
          "name": "",
          "type": "uint256"
        }
      ],
      "name": "user_nodes",
      "outputs": [
        {
          "internalType": "uint256",
          "name": "parent",
          "type": "uint256"
        },
        {
          "internalType": "bool",
          "name": "visited",
          "type": "bool"
        }
      ],
      "stateMutability": "view",
      "type": "function",
      "constant": true
    },
    {
      "inputs": [
        {
          "internalType": "uint256",
          "name": "",
          "type": "uint256"
        }
      ],
      "name": "users",
      "outputs": [
        {
          "internalType": "string",
          "name": "",
          "type": "string"
        }
      ],
      "stateMutability": "view",
      "type": "function",
      "constant": true
    },
    {
      "inputs": [
        {
          "internalType": "uint256",
          "name": "use_id",
          "type": "uint256"
        },
        {
          "internalType": "string",
          "name": "user_name",
          "type": "string"
        }
      ],
      "name": "registerUser",
      "outputs": [
        {
          "internalType": "uint256",
          "name": "",
          "type": "uint256"
        }
      ],
      "stateMutability": "nonpayable",
      "type": "function"
    },
    {
      "inputs": [
        {
          "internalType": "uint256",
          "name": "user_id_1",
          "type": "uint256"
        },
        {
          "internalType": "uint256",
          "name": "user_id_2",
          "type": "uint256"
        },
        {
          "internalType": "uint256",
          "name": "balance1",
          "type": "uint256"
        },
        {
          "internalType": "uint256",
          "name": "balance2",
          "type": "uint256"
        }
      ],
      "name": "createAcc",
      "outputs": [
        {
          "internalType": "uint256",
          "name": "",
          "type": "uint256"
        }
      ],
      "stateMutability": "nonpayable",
      "type": "function"
    },
    {
      "inputs": [
        {
          "internalType": "uint256",
          "name": "user_id_1",
          "type": "uint256"
        },
        {
          "internalType": "uint256",
          "name": "user_id_2",
          "type": "uint256"
        }
      ],
      "name": "sendAmount",
      "outputs": [
        {
          "internalType": "bool",
          "name": "",
          "type": "bool"
        },
        {
          "internalType": "uint256",
          "name": "",
          "type": "uint256"
        }
      ],
      "stateMutability": "nonpayable",
      "type": "function"
    },
    {
      "inputs": [
        {
          "internalType": "uint256",
          "name": "start",
          "type": "uint256"
        },
        {
          "internalType": "uint256",
          "name": "end",
          "type": "uint256"
        }
      ],
      "name": "check_path",
      "outputs": [
        {
          "internalType": "bool",
          "name": "",
          "type": "bool"
        }
      ],
      "stateMutability": "nonpayable",
      "type": "function"
    },
    {
      "inputs": [
        {
          "internalType": "uint256",
          "name": "node",
          "type": "uint256"
        }
      ],
      "name": "getParent",
      "outputs": [
        {
          "internalType": "uint256",
          "name": "",
          "type": "uint256"
        }
      ],
      "stateMutability": "view",
      "type": "function",
      "constant": true
    },
    {
      "inputs": [
        {
          "internalType": "uint256",
          "name": "user_id_1",
          "type": "uint256"
        },
        {
          "internalType": "uint256",
          "name": "user_id_2",
          "type": "uint256"
        }
      ],
      "name": "closeAccount",
      "outputs": [],
      "stateMutability": "nonpayable",
      "type": "function"
    }
  ],
  "bytecode": "0x608060405234801561001057600080fd5b50611751806100206000396000f3fe608060405234801561001057600080fd5b50600436106100b45760003560e01c80635ce54981116100715780635ce54981146101c75780635db9506e146101f757806398a14c6014610228578063af6d1fe414610258578063bd45d6eb14610288578063e012033d146102a4576100b4565b8063104046bd146100b95780631c57333e146100d757806323330c3614610107578063365b98b214610137578063414533de146101675780634387133714610197575b600080fd5b6100c16102d5565b6040516100ce9190610f0c565b60405180910390f35b6100f160048036038101906100ec91906110ad565b6102db565b6040516100fe9190610f0c565b60405180910390f35b610121600480360381019061011c9190611109565b610344565b60405161012e9190610f0c565b60405180910390f35b610151600480360381019061014c9190611149565b610369565b60405161015e91906111f5565b60405180910390f35b610181600480360381019061017c9190611149565b610409565b60405161018e9190610f0c565b60405180910390f35b6101b160048036038101906101ac9190611109565b610429565b6040516101be9190610f0c565b60405180910390f35b6101e160048036038101906101dc9190611217565b61045a565b6040516101ee9190610f0c565b60405180910390f35b610211600480360381019061020c9190611109565b6105a3565b60405161021f929190611299565b60405180910390f35b610242600480360381019061023d9190611109565b610951565b60405161024f91906112c2565b60405180910390f35b610272600480360381019061026d9190611149565b610c3f565b60405161027f9190610f0c565b60405180910390f35b6102a2600480360381019061029d9190611109565b610c63565b005b6102be60048036038101906102b99190611149565b610e32565b6040516102cc9291906112dd565b60405180910390f35b60055481565b600060016005546102ec9190611335565b6005819055508160008085815260200190815260200160002090816103119190611575565b50600183908060018154018082558091505060019003906000526020600020016000909190919091505582905092915050565b6003602052816000526040600020602052806000526040600020600091509150505481565b6000602052806000526040600020600091509050805461038890611398565b80601f01602080910402602001604051908101604052809291908181526020018280546103b490611398565b80156104015780601f106103d657610100808354040283529160200191610401565b820191906000526020600020905b8154815290600101906020018083116103e457829003601f168201915b505050505081565b600060066000838152602001908152602001600020600001549050919050565b6004602052816000526040600020818154811061044557600080fd5b90600052602060002001600091509150505481565b600082600360008781526020019081526020016000206000868152602001908152602001600020819055508160036000868152602001908152602001600020600087815260200190815260200160002081905550600060046000878152602001908152602001600020905080859080600181540180825580915050600190039060005260206000200160009091909190915055806004600088815260200190815260200160002090805461050f929190610e63565b506000600460008781526020019081526020016000209050808790806001815401808255809150506001900390600052602060002001600090919091909150558060046000888152602001908152602001600020908054610571929190610e63565b506003600088815260200190815260200160002060008781526020019081526020016000205492505050949350505050565b6000806000600190506000600260006105bc9190610eb5565b6105c68686610951565b9050806105de576000620f424093509350505061094a565b60008590505b86811461062457600281908060018154018082558091505060019003906000526020600020016000909190919091505561061d81610409565b90506105e4565b6002879080600181540180825580915050600190039060005260206000200160009091909190915055600060019050600060016002805490506106679190611647565b90505b600181106107795784600360006002848154811061068b5761068a61167b565b5b90600052602060002001548152602001908152602001600020600060026001856106b59190611647565b815481106106c6576106c561167b565b5b9060005260206000200154815260200190815260200160002054101561076657600091508160036000600284815481106107035761070261167b565b5b906000526020600020015481526020019081526020016000206000600260018561072d9190611647565b8154811061073e5761073d61167b565b5b906000526020600020015481526020019081526020016000205496509650505050505061094a565b8080610771906116aa565b91505061066a565b506000600160028054905061078e9190611647565b90505b600181106108b2578460036000600284815481106107b2576107b161167b565b5b90600052602060002001548152602001908152602001600020600060026001856107dc9190611647565b815481106107ed576107ec61167b565b5b9060005260206000200154815260200190815260200160002060008282546108159190611647565b92505081905550846003600060026001856108309190611647565b815481106108415761084061167b565b5b906000526020600020015481526020019081526020016000206000600284815481106108705761086f61167b565b5b9060005260206000200154815260200190815260200160002060008282546108989190611335565b9250508190555080806108aa906116aa565b915050610791565b5060018460036000600260016002805490506108ce9190611647565b815481106108df576108de61167b565b5b906000526020600020015481526020019081526020016000206000600280808054905061090c9190611647565b8154811061091d5761091c61167b565b5b90600052602060002001548152602001908152602001600020546109419190611335565b95509550505050505b9250929050565b600080600090505b6005548110156109fd576000600660006001848154811061097d5761097c61167b565b5b9060005260206000200154815260200190815260200160002060000181905550600060066000600184815481106109b7576109b661167b565b5b9060005260206000200154815260200190815260200160002060010160006101000a81548160ff02191690831515021790555080806109f5906116d3565b915050610959565b50600060055467ffffffffffffffff811115610a1c57610a1b610f82565b5b604051908082528060200260200182016040528015610a4a5781602001602082028036833780820191505090505b509050600080848603610a635760019350505050610c39565b85838280610a70906116d3565b935081518110610a8357610a8261167b565b5b6020026020010181815250506000600660008881526020019081526020016000206000018190555060016006600088815260200190815260200160002060010160006101000a81548160ff0219169083151502179055505b80821015610c31576000838380610af1906116d3565b945081518110610b0457610b0361167b565b5b60200260200101519050858103610b22576001945050505050610c39565b60005b6004600083815260200190815260200160002080549050811015610c2a576000600460008481526020019081526020016000208281548110610b6a57610b6961167b565b5b906000526020600020015490506006600082815260200190815260200160002060010160009054906101000a900460ff16610c165780868580610bac906116d3565b965081518110610bbf57610bbe61167b565b5b60200260200101818152505060016006600083815260200190815260200160002060010160006101000a81548160ff0219169083151502179055508260066000838152602001908152602001600020600001819055505b508080610c22906116d3565b915050610b25565b5050610adb565b600093505050505b92915050565b60028181548110610c4f57600080fd5b906000526020600020016000915090505481565b600360008381526020019081526020016000206000828152602001908152602001600020600090556003600082815260200190815260200160002060008381526020019081526020016000206000905560006004600084815260200190815260200160002080549050905060005b6004600085815260200190815260200160002080549050811015610d705782600460008681526020019081526020016000208281548110610d1557610d1461167b565b5b906000526020600020015403610d5d57600460008581526020019081526020016000208181548110610d4a57610d4961167b565b5b9060005260206000200160009055610d70565b8080610d68906116d3565b915050610cd1565b506004600083815260200190815260200160002080549050905060005b6004600084815260200190815260200160002080549050811015610e2c5783600460008581526020019081526020016000208281548110610dd157610dd061167b565b5b906000526020600020015403610e1957600460008481526020019081526020016000208181548110610e0657610e0561167b565b5b9060005260206000200160009055610e2c565b8080610e24906116d3565b915050610d8d565b50505050565b60066020528060005260406000206000915090508060000154908060010160009054906101000a900460ff16905082565b828054828255906000526020600020908101928215610ea45760005260206000209182015b82811115610ea3578254825591600101919060010190610e88565b5b509050610eb19190610ed6565b5090565b5080546000825590600052602060002090810190610ed39190610ed6565b50565b5b80821115610eef576000816000905550600101610ed7565b5090565b6000819050919050565b610f0681610ef3565b82525050565b6000602082019050610f216000830184610efd565b92915050565b6000604051905090565b600080fd5b600080fd5b610f4481610ef3565b8114610f4f57600080fd5b50565b600081359050610f6181610f3b565b92915050565b600080fd5b600080fd5b6000601f19601f8301169050919050565b7f4e487b7100000000000000000000000000000000000000000000000000000000600052604160045260246000fd5b610fba82610f71565b810181811067ffffffffffffffff82111715610fd957610fd8610f82565b5b80604052505050565b6000610fec610f27565b9050610ff88282610fb1565b919050565b600067ffffffffffffffff82111561101857611017610f82565b5b61102182610f71565b9050602081019050919050565b82818337600083830152505050565b600061105061104b84610ffd565b610fe2565b90508281526020810184848401111561106c5761106b610f6c565b5b61107784828561102e565b509392505050565b600082601f83011261109457611093610f67565b5b81356110a484826020860161103d565b91505092915050565b600080604083850312156110c4576110c3610f31565b5b60006110d285828601610f52565b925050602083013567ffffffffffffffff8111156110f3576110f2610f36565b5b6110ff8582860161107f565b9150509250929050565b600080604083850312156111205761111f610f31565b5b600061112e85828601610f52565b925050602061113f85828601610f52565b9150509250929050565b60006020828403121561115f5761115e610f31565b5b600061116d84828501610f52565b91505092915050565b600081519050919050565b600082825260208201905092915050565b60005b838110156111b0578082015181840152602081019050611195565b60008484015250505050565b60006111c782611176565b6111d18185611181565b93506111e1818560208601611192565b6111ea81610f71565b840191505092915050565b6000602082019050818103600083015261120f81846111bc565b905092915050565b6000806000806080858703121561123157611230610f31565b5b600061123f87828801610f52565b945050602061125087828801610f52565b935050604061126187828801610f52565b925050606061127287828801610f52565b91505092959194509250565b60008115159050919050565b6112938161127e565b82525050565b60006040820190506112ae600083018561128a565b6112bb6020830184610efd565b9392505050565b60006020820190506112d7600083018461128a565b92915050565b60006040820190506112f26000830185610efd565b6112ff602083018461128a565b9392505050565b7f4e487b7100000000000000000000000000000000000000000000000000000000600052601160045260246000fd5b600061134082610ef3565b915061134b83610ef3565b925082820190508082111561136357611362611306565b5b92915050565b7f4e487b7100000000000000000000000000000000000000000000000000000000600052602260045260246000fd5b600060028204905060018216806113b057607f821691505b6020821081036113c3576113c2611369565b5b50919050565b60008190508160005260206000209050919050565b60006020601f8301049050919050565b600082821b905092915050565b60006008830261142b7fffffffffffffffffffffffffffffffffffffffffffffffffffffffffffffffff826113ee565b61143586836113ee565b95508019841693508086168417925050509392505050565b6000819050919050565b600061147261146d61146884610ef3565b61144d565b610ef3565b9050919050565b6000819050919050565b61148c83611457565b6114a061149882611479565b8484546113fb565b825550505050565b600090565b6114b56114a8565b6114c0818484611483565b505050565b5b818110156114e4576114d96000826114ad565b6001810190506114c6565b5050565b601f821115611529576114fa816113c9565b611503846113de565b81016020851015611512578190505b61152661151e856113de565b8301826114c5565b50505b505050565b600082821c905092915050565b600061154c6000198460080261152e565b1980831691505092915050565b6000611565838361153b565b9150826002028217905092915050565b61157e82611176565b67ffffffffffffffff81111561159757611596610f82565b5b6115a18254611398565b6115ac8282856114e8565b600060209050601f8311600181146115df57600084156115cd578287015190505b6115d78582611559565b86555061163f565b601f1984166115ed866113c9565b60005b82811015611615578489015182556001820191506020850194506020810190506115f0565b86831015611632578489015161162e601f89168261153b565b8355505b6001600288020188555050505b505050505050565b600061165282610ef3565b915061165d83610ef3565b925082820390508181111561167557611674611306565b5b92915050565b7f4e487b7100000000000000000000000000000000000000000000000000000000600052603260045260246000fd5b60006116b582610ef3565b9150600082036116c8576116c7611306565b5b600182039050919050565b60006116de82610ef3565b91507fffffffffffffffffffffffffffffffffffffffffffffffffffffffffffffffff82036117105761170f611306565b5b60018201905091905056fea2646970667358221220d20b75247e324c8d2ece1e76d03a5b85211118cbf26e56545a807ea02c35e7bc64736f6c63430008130033",
  "immutableReferences": {},
  "source": "// SPDX-License-Identifier: MIT\npragma solidity >=0.8.2 <0.9.0;\n//pragma solidity ^0.8.0;\n\n/*@custom:dev-run-script NatSpec\n*/\ncontract Payment {\n\n   mapping(uint => string) public users;\nuint[] ids;\nuint[] public path;\n   mapping (uint => mapping (uint=>uint)) public joint_account;\n    mapping(uint => uint[]) public adj_mat; \n    uint public total_nodes;\n    struct Node {\n        uint parent; // Parent node\n        bool visited; // Flag to track visited user_nodes\n    }\n    mapping(uint => Node) public user_nodes;\n\n\n\n   //function to register user\n   function registerUser(uint use_id, string memory user_name) public returns (uint)\n   {\n       total_nodes=total_nodes+1;\n       users[use_id]=user_name;\n       ids.push(use_id);\n       return use_id;\n   }\n\n   //create account between user1 and user\n   function createAcc(uint user_id_1,uint user_id_2,uint balance1,uint balance2) public returns(uint)\n   {\n       //stores balance between user1 and user2\n       joint_account[user_id_1][user_id_2]=balance1;\n       joint_account[user_id_2][user_id_1]=balance2;\n       uint[] storage existingValues1 = adj_mat[user_id_1];\n       existingValues1.push(user_id_2);\n       adj_mat[user_id_1]=existingValues1;\n       uint[] storage existingValues2 = adj_mat[user_id_2];\n       existingValues2.push(user_id_1);\n       adj_mat[user_id_2]=existingValues2;\n       return joint_account[user_id_1][user_id_2];\n   }\n\n    //function to send amount from user1 and user2\n    function sendAmount(uint user_id_1,uint user_id_2) public returns(bool, uint)\n    {\n        //stores if there is path between the users or not\n        uint amount = 1;\n        bool ispath;\n        delete path;\n        ispath=check_path(user_id_1,user_id_2);\n        if(!ispath) return (false,1000000);\n\n        //populate the path with users which are between user1 and user2 in shortest path \n        uint curr=user_id_2;\n        while(curr!=user_id_1)\n        {\n            path.push(curr);\n            curr=getParent(curr);\n        }\n        path.push(user_id_1);\n\n        //check if the trasaction can be possible\n        bool decision = true;\n        for(uint j=path.length - 1; j>=1; j--){\n            if(joint_account[path[j]][path[j-1]] < amount){\n                decision = false;\n                return (decision,joint_account[path[j]][path[j-1]]);\n            }\n        }\n\n        //transfer the amount between the users \n        for(uint j=path.length - 1; j>=1; j--){\n            joint_account[path[j]][path[j-1]] -= amount;\n            joint_account[path[j-1]][path[j]] += amount;\n        }\n        return (true, joint_account[path[path.length-1]][path[path.length-2]] + amount);\n        // return path;\n        \n    }\n\n    //check if there path exist from user1 and user2\n    function check_path(uint start,uint end) public returns (bool)\n    {\n\n\n        for(uint i=0;i<total_nodes;i++)\n        {\n            user_nodes[ids[i]].parent=0;\n            user_nodes[ids[i]].visited=false;\n\n        }\n\n        uint[] memory queue = new uint[](total_nodes);\n        uint f = 0;\n        uint r = 0;\n\n        //BFS algorithm\n        if(start==end)\n        {\n            return true;\n        }\n\n        queue[r++] = start;\n        user_nodes[start].parent = 0;\n        user_nodes[start].visited = true; \n\n        while (f < r) {\n            uint current = queue[f++];\n\n             if (current == end) {\n                return true;\n            }\n            //get all the neighbouring nodes\n             for (uint i = 0; i < adj_mat[current].length; i++) {\n                 uint neighbor = adj_mat[current][i];\n\n                //check if the nodes are already visited\n                if (! user_nodes[neighbor].visited) {\n                    queue[r++] = neighbor;\n                    user_nodes[neighbor].visited = true;\n                    user_nodes[neighbor].parent = current; \n\n                }\n            }\n\n        }\n        return false;\n\n    }\n\n    //get parent of the node in the bfs path\n    function getParent(uint node) public view returns (uint) {\n        return user_nodes[node].parent;\n    }\n\n    //close account between user1 and user2\n    function closeAccount(uint user_id_1, uint user_id_2) public\n    {\n        delete joint_account[user_id_1][user_id_2];\n        delete joint_account[user_id_2][user_id_1];\n\n        uint len=adj_mat[user_id_1].length;\n        for(uint i=0;i<adj_mat[user_id_1].length;i++)\n        {\n            if(adj_mat[user_id_1][i]==user_id_2)\n            {\n                delete adj_mat[user_id_1][i];\n                break;\n            }\n        }\n\n        len=adj_mat[user_id_2].length;\n        for(uint i=0;i<adj_mat[user_id_2].length;i++)\n        {\n            if(adj_mat[user_id_2][i]==user_id_1)\n            {\n                delete adj_mat[user_id_2][i];\n                break;\n            }\n        }\n\n    }\n\n}",
  "sourcePath": "/home/virusundetected/Documents/IITB/Sem2/CS 765/Assignments/Dapp/Assgn3-22m0774-22m0781-22m0766/contracts/Payment.sol",
  "compiler": {
    "name": "solc",
    "version": "0.8.19+commit.7dd6d404.Emscripten.clang"
  },
  "schemaVersion": "3.4.13",
  "updatedAt": "2023-04-16T13:52:30.374Z",
  "networkType": "ethereum",
  "devdoc": {
    "kind": "dev",
    "methods": {},
    "version": 1
  },
  "userdoc": {
    "kind": "user",
    "methods": {},
    "version": 1
  }
}